:100000000C9462000C948A000C948A000C948A0070
:100010000C948A000C948A000C948A000C948A0038
:100020000C948A000C948A000C948A000C948A0028
:100030000C948A000C948A000C948A000C948A0018
:100040000C9454050C948A000C94E4060C948A00D9
:100050000C948A000C948A000C948A000C948A00F8
:100060000C948A000C948A000000000024002700F1
:100070002A0000000000250028002B0000000000DE
:1000800023002600290004040404040404040202DA
:100090000202020203030303030301020408102007
:1000A0004080010204081020010204081020000012
:1000B0000007000201000003040600000000000029
:1000C00000002D0811241FBECFEFD8E0DEBFCDBF4A
:1000D00011E0A0E0B1E0E4E1F3E102C005900D928F
:1000E000A037B107D9F712E0A0E7B1E001C01D9237
:1000F000AA31B107E1F710E0C4ECD0E004C02297C8
:10010000FE010E944D09C23CD107C9F70E944D056E
:100110000C9488090C940000AEE0B0E0E2E9F0E055
:100120000C945F090D891E8986E08C831A830983EC
:100130008FEF9FE79E838D839E01275E3F4FCE0109
:1001400001966F89788DA9010E94B0002F813885B2
:10015000020F131FF80110822E96E4E00C947B0925
:10016000ABE0B0E0E6EBF0E00C9451093C012B0170
:100170005A01FC0117821682838181FD03C06FEF53
:100180007FEFC6C19AE0892E1E010894211C311C04
:10019000F3012381F20123FD859123FF81912F013A
:1001A000882309F4B2C1853239F423FD859123FFF8
:1001B00081912F01853229F490E0B3010E94A302BE
:1001C000E7CF982FFF24EE249924FFE1FF15D0F00C
:1001D0009B3269F09C3228F4903259F0933291F4BA
:1001E0000EC09D3249F0903369F441E024C052E0E2
:1001F000F52A84E0F82A28C098E0F92A25C0E0E131
:10020000FE2A22C0F7FC29C0892F80538A3070F45F
:10021000F6FE05C0989C902C1124980E15C0E89C01
:10022000E02C1124E80EF0E2FF2A0EC09E3229F4E1
:10023000F6FC6BC140E4F42A07C09C3619F450E880
:10024000F52A02C0983649F4F20123FD959123FF67
:1002500091912F01992309F0B8CF892F85548330CC
:1002600018F08052833038F444E050E0A40EB51EFC
:100270005FE359830FC0933631F0933779F09335AC
:1002800009F056C020C0F5018081898342E050E02A
:10029000A40EB51E610101E010E012C0F501C0809E
:1002A000D180F6FC03C06FEF7FEF02C0692D70E0D4
:1002B00042E050E0A40EB51EC6010E9498028C01D7
:1002C0005FE7F52214C0F501C080D180F6FC03C0C1
:1002D0006FEF7FEF02C0692D70E042E050E0A40EA6
:1002E000B51EC6010E948D028C0150E8F52AF3FE6E
:1002F00007C01AC080E290E0B3010E94A302EA9412
:100300008E2D90E008171907A8F30EC0F601F7FC30
:100310008591F7FE81916F0190E0B3010E94A302E5
:10032000E110EA94015010400115110579F7EAC077
:10033000943611F0993669F5F7FE08C0F501208171
:1003400031814281538184E090E00AC0F5018081CF
:1003500091819C01442737FD4095542F82E090E025
:10036000A80EB91E9FE6F92257FF09C05095409587
:10037000309521953F4F4F4F5F4FE0E8FE2ACA016D
:10038000B901A1012AE030E00E94CF02D82ED21894
:1003900040C0953729F41F2D1F7E2AE030E01DC094
:1003A0001F2D197F9F3661F0903720F4983509F0A2
:1003B000ACC00FC0903739F0983709F0A6C004C020
:1003C00028E030E00AC0106114FD146020E130E044
:1003D00004C014FD166020E132E017FF08C0F501EB
:1003E000608171818281938144E050E008C0F50111
:1003F00080819181BC0180E090E042E050E0A40E59
:10040000B51EA1010E94CF02D82ED2188FE7F82E78
:10041000F122F6FE0BC05EEFF522D91438F4F4FE9B
:1004200007C0F2FC05C08FEEF82202C01D2D01C0EE
:10043000192DF4FE0DC0FE01ED0DF11D80818033FC
:1004400019F499EEF92208C01F5FF2FE05C003C03F
:100450008F2D867809F01F5F0F2DF3FC14C0F0FE7E
:100460000FC01E1510F09D2C0BC09D2C9E0C911AD8
:100470001E2D06C080E290E0B3010E94A3021F5F20
:100480001E15C0F304C01E1510F4E11A01C0EE24BD
:1004900004FF0FC080E390E0B3010E94A30202FFBB
:1004A0001DC001FD03C088E790E00EC088E590E024
:1004B0000BC0802F867891F001FF02C08BE201C053
:1004C00080E2F7FC8DE290E0B3010E94A30206C037
:1004D00080E390E0B3010E94A3029A94D914C0F380
:1004E000DA94F101ED0DF11D808190E0B3010E94DD
:1004F000A302DD20A9F706C080E290E0B3010E94CC
:10050000A302EA94EE20C1F743CEF301668177811E
:10051000CB012B96E2E10C946D09FC010590615032
:1005200070400110D8F7809590958E0F9F1F089509
:10053000FC016150704001900110D8F780959095B2
:100540008E0F9F1F08950F931F93CF93DF938C01FE
:10055000EB018B8181FF1BC082FF0DC02E813F818B
:100560008C819D812817390764F4E881F981019312
:10057000F983E88306C0E885F985802F0995892BE2
:1005800031F48E819F8101969F838E8302C00FEF8D
:100590001FEFC801DF91CF911F910F910895FA01CC
:1005A000AA27283051F1203181F1E8946F936E7FB2
:1005B0006E5F7F4F8F4F9F4FAF4FB1E03ED0B4E0A3
:1005C0003CD0670F781F891F9A1FA11D680F791FE4
:1005D0008A1F911DA11D6A0F711D811D911DA11DF5
:1005E00020D009F468943F912AE0269F1124301905
:1005F000305D3193DEF6CF010895462F4770405DA0
:100600004193B3E00FD0C9F7F6CF462F4F70405D4E
:100610004A3318F0495D31FD4052419302D0A9F7A9
:10062000EACFB4E0A6959795879577956795BA95A3
:10063000C9F700976105710508959B01AC010A2E69
:1006400006945795479537952795BA95C9F7620F40
:10065000731F841F951FA01D0895AF92BF92CF9264
:10066000DF92EF92FF920F931F93CF93DF93A82E09
:10067000B62E6A01C0E0D0E079010027F7FC0095B2
:10068000102F0EC08A2DBE010E941E068B2DBE01AA
:100690000E941E06C801B7010E949C05CC0DDD1DFD
:1006A0008091620190916301C817D9075CF3DF91D3
:1006B000CF911F910F91FF90EF90DF90CF90BF905F
:1006C000AF900895AF92BF92CF92DF92EF92FF92D8
:1006D0000F931F93CF93DF93A82EB62EC091620184
:1006E000D091630179010027F7FC0095102FCC24ED
:1006F000DD24C41AD50A0EC08A2DBE010E941E0632
:100700008B2DBE010E941E06C801B7010E949C05E8
:10071000CC0DDD1DD7FFF0CFDF91CF911F910F9151
:10072000FF90EF90DF90CF90BF90AF900895AF9281
:10073000BF92CF92DF92EF92FF920F931F93DF93BE
:10074000CF93CDB7DEB7C055D0400FB6F894DEBF1B
:100750000FBECDBF80915E010E9400067C0180919A
:1007600070010E9400065C01809160010E940006F9
:100770006C01809178019091790181309105A1F00F
:100780008230910509F481C0892B09F01FC18CE2E8
:10079000E81681E0F8060CF019C181E090E0909332
:1007A00079018093780112C19CE2E91691E0F90683
:1007B0000CF464C0ADB7BEB718970FB6F894BEBFBF
:1007C0000FBEADBFEDB7FEB731968E010F5F1F4F65
:1007D00012961C930E93119780E091E0938382838D
:1007E000B582A482D782C6820E948C008DB79EB744
:1007F00008960FB6F8949EBF0FBE8DBF87E092E0BB
:10080000B8010E94BD08CA14DB04BCF460915A010F
:1008100070915B0180915601909157014AE050E040
:100820002AE030E00E942D0360915A0170915B0133
:10083000809156019091570116C060915C017091B2
:100840005D0180915401909155014AE050E02AE009
:1008500030E00E942D0360915C0170915D018091F8
:100860005401909155014AE050E02AE030E00E94A6
:10087000620368EC70E080E090E0ACC082E090E061
:100880009093790180937801ABC094E6E916F10466
:100890003CF4E0916201F09163013097A9F01CC033
:1008A000A8E7EA16F1041CF4E6E9F0E015C0B8EC9C
:1008B000EB16F1041CF4EBE4F0E00EC08CE2E81659
:1008C00081E0F8060CF489C081E090E09093790112
:1008D00080937801E0E0F0E02091720130917301A3
:1008E000CF01821B930B853691052CF0FC01F59509
:1008F000E795E20FF31FCA14DB048CF4C5018C19D1
:100900009D096EE170E00E94E7089F01260F371FE6
:100910003093750120937401E61BF70B10C0C601DC
:100920008A199B096EE170E00E94E7089F01261B6F
:10093000370B3093750120937401E60FF71FF09386
:100940007701E0937601ADB7BEB71A970FB6F8946A
:10095000BEBF0FBEADBFEDB7FEB731968E010F5FC4
:100960001F4F12961C930E93119786E291E093838A
:100970008283F582E482809174019091750197835E
:1009800086838091760190917701918780870E947C
:100990008C008DB79EB70A960FB6F8949EBF0FBE17
:1009A0008DBF87E092E0B8010E94BD08609174019C
:1009B00070917501809154010E941E06609176012C
:1009C0007091770180915A010E941E066AEF70E0D3
:1009D00080E090E00E949C0503C0EEE1F0E07CCF57
:1009E000C05BDF4F0FB6F894DEBF0FBECDBFCF9117
:1009F000DF911F910F91FF90EF90DF90CF90BF900C
:100A0000AF9008958091520161E00E947706809135
:100A1000540161E00E9477068091540161E00E94D8
:100A200077068091580161E00E94770680915A0113
:100A300061E00E94770680915A0161E00E9477068A
:100A40006CED75E080E090E00E949C058091520181
:100A500061E00E9497068091540160E00E94970631
:100A60008091560160E00E9497068091580161E0F4
:100A70000E94970680915A0160E00E94970680913B
:100A80005C0160E00E94970687E092E040E855E252
:100A900060E070E00E94210708950E94C6050E9450
:100AA00002050E949703FDCF1F920F920FB60F927F
:100AB00011242F933F938F939F93AF93BF93809174
:100AC0007E0190917F01A0918001B09181013091D0
:100AD00082010196A11DB11D232F2D5F2D3720F01E
:100AE0002D570196A11DB11D2093820180937E0197
:100AF00090937F01A0938001B093810180917A014E
:100B000090917B01A0917C01B0917D010196A11D86
:100B1000B11D80937A0190937B01A0937C01B093E7
:100B20007D01BF91AF919F918F913F912F910F9038
:100B30000FBE0F901F901895EF92FF920F931F9387
:100B40007B018C018FB7F89440917E0150917F0119
:100B500060918001709181018FBF2FB7F8948091CF
:100B60007E0190917F01A0918001B09181012FBF02
:100B7000841B950BA60BB70BE816F9060A071B0793
:100B800060F71F910F91FF90EF900895789484B5CE
:100B9000826084BD84B5816084BD85B5826085BD79
:100BA00085B5816085BDEEE6F0E08081816080835F
:100BB000E1E8F0E0808182608083808181608083D1
:100BC000E0E8F0E0808181608083E1EBF0E080810B
:100BD00084608083E0EBF0E0808181608083EAE7DD
:100BE000F0E0808184608083808182608083808166
:100BF000816080838081806880831092C100089525
:100C00008F70909164019295990F990F907C982B19
:100C100090937C0080917A00806480937A00809128
:100C20007A0086FDFCCF2091780040917900942FC6
:100C300080E030E0282B392BC90108951F93CF9312
:100C4000DF93182FEB0161E00E947706E12FF0E0BF
:100C5000E255FF4F8491833051F480918000806889
:100C600080938000D0938900C09388003CC084307A
:100C700051F480918000806280938000D0938B003B
:100C8000C0938A0030C0813039F4209729F184B5AF
:100C9000806884BDC7BD27C0823039F42097E1F059
:100CA00084B5806284BDC8BD1EC0863041F4809189
:100CB000B00080688093B000C093B30014C0873048
:100CC00041F48091B00080628093B000C093B40082
:100CD0000AC0C038D1051CF4812F60E002C0812F0A
:100CE00061E00E949706DF91CF911F910895282F10
:100CF00030E0C90186569F4FFC0194912A573F4F1F
:100D0000F9018491882391F0E82FF0E0EE0FFF1FA6
:100D1000E859FF4FA591B491662329F48C919095E1
:100D200089238C9308958C91892B8C930895482F57
:100D300050E0CA0182559F4FFC012491CA0186569A
:100D40009F4FFC0194914A575F4FFA01349133232E
:100D5000D1F1222331F1233021F4809180008F776B
:100D600005C0243031F4809180008F7D8093800015
:100D700018C0213019F484B58F7704C0223021F4D3
:100D800084B58F7D84BD0DC0263021F48091B000E4
:100D90008F7705C0273029F48091B0008F7D809334
:100DA000B000E32FF0E0EE0FFF1FEE58FF4FA591CC
:100DB000B491662329F48C91909589238C9308959E
:100DC0008C91892B8C9308951F920F920FB60F92DE
:100DD00011242F933F934F935F936F937F938F9340
:100DE0009F93AF93BF93EF93FF934091C600E09121
:100DF0000302F0910402CF01019660E870E00E94C6
:100E0000E7089C0180910502909106022817390796
:100E100039F0ED57FE4F40833093040220930302D4
:100E2000FF91EF91BF91AF919F918F917F916F91C2
:100E30005F914F913F912F910F900FBE0F901F9098
:100E400018955F926F927F928F929F92AF92BF920E
:100E5000CF92DF92EF92FF920F931F93CF93DF9386
:100E6000EC013A014B01413482E458078FE06807F6
:100E700080E078070CF07FC060E874E88EE190E0D5
:100E8000A40193010E941C09215030404040504071
:100E9000CA01B90122E030E040E050E00E941C09A4
:100EA00059016A01A601950120953095409550950C
:100EB00094E0220F331F441F551F9A95D1F760E02D
:100EC00074E284EF90E00E941C09CA01B9012FEF7F
:100ED00030E040E050E00E94C808A40193010E9465
:100EE0001C09C90181509F4F181619061CF4522E77
:100EF0005A9403C055245394521A60E079E08DE36C
:100F000090E0A40193010E941C0921503040404010
:100F10005040CA01B90122E030E040E050E00E94B8
:100F20001C09209530954095509583E0220F331F82
:100F3000441F551F8A95D1F760E074E284EF90E07A
:100F40000E941C09CA01B9012FEF30E040E050E0D7
:100F50000E94C808A40193010E941C09C901815084
:100F60009F4F181619061CF4822F815002C081E091
:100F7000821B851500F5E885F98581E090E00A88F7
:100F800002C0880F991F0A94E2F7808360E079E03D
:100F90008DE390E0A40193010E941C092150304090
:100FA00040405040CA01B90122E030E040E050E04A
:100FB0000E941C0904C0E885F98510829501EC8126
:100FC000FD813083EE81FF812083EA85FB852081CE
:100FD00041E050E0CA010E8402C0880F991F0A94B4
:100FE000E2F7282B2083EA85FB852081CA010F8444
:100FF00002C0880F991F0A94E2F7282B2083EA8504
:10100000FB858081088802C0440F551F0A94E2F7CF
:10101000842B8083DF91CF911F910F91FF90EF90F0
:10102000DF90CF90BF90AF909F908F907F906F9008
:101030005F900895FC01A085B18521898C9190E095
:10104000022E02C0959587950A94E2F780FFF6CFAD
:101050000484F585E02D6083089589E691E09093FE
:1010600008028093070283E891E090930A0280933C
:10107000090285EC90E090930C0280930B0284ECC3
:1010800090E090930E0280930D0280EC90E090939C
:10109000100280930F0281EC90E0909312028093F3
:1010A000110286EC90E0909314028093130284E086
:1010B0008093150283E08093160287E080931702E5
:1010C00085E08093180281E08093190208950F93C0
:1010D0001F93CF93DF938C01EB0109C02196D801B8
:1010E000ED91FC910190F081E02DC8010995688196
:1010F0006623A1F7DF91CF911F910F910895EF9291
:10110000FF920F931F93CF93DF938C017B01EA0132
:101110000CC0D7016D917D01D801ED91FC9101903A
:10112000F081E02DC80109952197209791F7DF9173
:10113000CF911F910F91FF90EF900895DC01ED91F9
:10114000FC910280F381E02D099508950F931F9380
:101150008C01DC01ED91FC910190F081E02D6DE0BE
:101160000995D801ED91FC910190F081E02DC80125
:101170006AE009951F910F9108950F931F938C01B9
:101180000E949E08C8010E94A6081F910F91089511
:10119000629FD001739FF001829FE00DF11D649F5B
:1011A000E00DF11D929FF00D839FF00D749FF00DE7
:1011B000659FF00D9927729FB00DE11DF91F639F88
:1011C000B00DE11DF91FBD01CF011124089597FB5A
:1011D000092E07260AD077FD04D049D006D000207A
:1011E0001AF4709561957F4F0895F6F79095819563
:1011F0009F4F0895A1E21A2EAA1BBB1BFD010DC033
:10120000AA1FBB1FEE1FFF1FA217B307E407F507B6
:1012100020F0A21BB30BE40BF50B661F771F881F92
:10122000991F1A9469F760957095809590959B0128
:10123000AC01BD01CF01089597FB092E05260ED004
:1012400057FD04D0D7DF0AD0001C38F450954095E4
:10125000309521953F4F4F4F5F4F0895F6F790958A
:101260008095709561957F4F8F4F9F4F0895AA1B72
:10127000BB1B51E107C0AA1FBB1FA617B70710F081
:10128000A61BB70B881F991F5A95A9F780959095B3
:10129000BC01CD010895EE0FFF1F0590F491E02DE4
:1012A00009942F923F924F925F926F927F928F920A
:1012B0009F92AF92BF92CF92DF92EF92FF920F93E5
:1012C0001F93CF93DF93CDB7DEB7CA1BDB0B0FB6EF
:1012D000F894DEBF0FBECDBF09942A8839884888AC
:1012E0005F846E847D848C849B84AA84B984C88442
:1012F000DF80EE80FD800C811B81AA81B981CE0F39
:10130000D11D0FB6F894DEBF0FBECDBFED0108951D
:04131000F894FFCF7F
:101314006C656674436C6F73656E6573733A2025F0
:10132400642C207269676874436C6F73656E6573AF
:10133400733A20256400636C6F73656E6573734341
:10134400656E7465723A2025642C206C5370656553
:10135400643A2025642C207253706565643A202514
:10136400640002000600050003000A0009000100F1
:1013740002002C0101000000001A0867087F080021
:00000001FF
